{
  "contractName": "CrowdFunding",
  "abi": [
    {
      "inputs": [
        {
          "internalType": "uint256",
          "name": "",
          "type": "uint256"
        }
      ],
      "name": "campaigns",
      "outputs": [
        {
          "internalType": "address",
          "name": "owner",
          "type": "address"
        },
        {
          "internalType": "string",
          "name": "title",
          "type": "string"
        },
        {
          "internalType": "string",
          "name": "description",
          "type": "string"
        },
        {
          "internalType": "uint256",
          "name": "target",
          "type": "uint256"
        },
        {
          "internalType": "uint256",
          "name": "deadline",
          "type": "uint256"
        },
        {
          "internalType": "uint256",
          "name": "amountCollected",
          "type": "uint256"
        }
      ],
      "stateMutability": "view",
      "type": "function"
    },
    {
      "inputs": [],
      "name": "numberOfCampaigns",
      "outputs": [
        {
          "internalType": "uint256",
          "name": "",
          "type": "uint256"
        }
      ],
      "stateMutability": "view",
      "type": "function"
    },
    {
      "inputs": [
        {
          "internalType": "address",
          "name": "_owner",
          "type": "address"
        },
        {
          "internalType": "string",
          "name": "_title",
          "type": "string"
        },
        {
          "internalType": "string",
          "name": "_desc",
          "type": "string"
        },
        {
          "internalType": "uint256",
          "name": "_target",
          "type": "uint256"
        },
        {
          "internalType": "uint256",
          "name": "_deadline",
          "type": "uint256"
        }
      ],
      "name": "createCampaign",
      "outputs": [],
      "stateMutability": "nonpayable",
      "type": "function"
    },
    {
      "inputs": [
        {
          "internalType": "uint256",
          "name": "_id",
          "type": "uint256"
        }
      ],
      "name": "donateToCampaign",
      "outputs": [],
      "stateMutability": "payable",
      "type": "function"
    },
    {
      "inputs": [
        {
          "internalType": "uint256",
          "name": "_id",
          "type": "uint256"
        }
      ],
      "name": "getDonators",
      "outputs": [
        {
          "internalType": "address[]",
          "name": "",
          "type": "address[]"
        }
      ],
      "stateMutability": "view",
      "type": "function"
    },
    {
      "inputs": [
        {
          "internalType": "uint256",
          "name": "_id",
          "type": "uint256"
        }
      ],
      "name": "getDonations",
      "outputs": [
        {
          "internalType": "uint256[]",
          "name": "",
          "type": "uint256[]"
        }
      ],
      "stateMutability": "view",
      "type": "function"
    },
    {
      "inputs": [],
      "name": "getAllCampaigns",
      "outputs": [
        {
          "components": [
            {
              "internalType": "address",
              "name": "owner",
              "type": "address"
            },
            {
              "internalType": "string",
              "name": "title",
              "type": "string"
            },
            {
              "internalType": "string",
              "name": "description",
              "type": "string"
            },
            {
              "internalType": "uint256",
              "name": "target",
              "type": "uint256"
            },
            {
              "internalType": "uint256",
              "name": "deadline",
              "type": "uint256"
            },
            {
              "internalType": "uint256",
              "name": "amountCollected",
              "type": "uint256"
            },
            {
              "internalType": "address[]",
              "name": "donators",
              "type": "address[]"
            },
            {
              "internalType": "uint256[]",
              "name": "donations",
              "type": "uint256[]"
            }
          ],
          "internalType": "struct CrowdFunding.Campaign[]",
          "name": "",
          "type": "tuple[]"
        }
      ],
      "stateMutability": "view",
      "type": "function"
    }
  ],
  "bytecode": "0x60806040525f8055348015610012575f80fd5b50611828806100205f395ff3fe60806040526004361061006f575f3560e01c8063141961bc1161004d578063141961bc1461010157806342a4fda814610142578063596d9ce21461015e57806386cdf6041461019a5761006f565b8063075843c31461007357806307ca140d1461009b5780630fa91fa9146100c5575b5f80fd5b34801561007e575f80fd5b5061009960048036038101906100949190610db1565b6101c4565b005b3480156100a6575f80fd5b506100af61039e565b6040516100bc9190610e6f565b60405180910390f35b3480156100d0575f80fd5b506100eb60048036038101906100e69190610e88565b6103a3565b6040516100f89190610f6a565b60405180910390f35b34801561010c575f80fd5b5061012760048036038101906101229190610e88565b610442565b60405161013996959493929190611013565b60405180910390f35b61015c60048036038101906101579190610e88565b6105a5565b005b348015610169575f80fd5b50610184600480360381019061017f9190610e88565b6106f6565b6040516101919190611137565b60405180910390f35b3480156101a5575f80fd5b506101ae610760565b6040516101bb91906113f4565b60405180910390f35b6040518061010001604052808673ffffffffffffffffffffffffffffffffffffffff1681526020018581526020018481526020018381526020018281526020015f81526020015f67ffffffffffffffff81111561022457610223610c5a565b5b6040519080825280602002602001820160405280156102525781602001602082028036833780820191505090505b5081526020015f67ffffffffffffffff81111561027257610271610c5a565b5b6040519080825280602002602001820160405280156102a05781602001602082028036833780820191505090505b5081525060015f805481526020019081526020015f205f820151815f015f6101000a81548173ffffffffffffffffffffffffffffffffffffffff021916908373ffffffffffffffffffffffffffffffffffffffff160217905550602082015181600101908161030f919061160e565b506040820151816002019081610325919061160e565b50606082015181600301556080820151816004015560a0820151816005015560c0820151816006019080519060200190610360929190610a93565b5060e082015181600701908051906020019061037d929190610b1a565b509050505f808154809291906103929061170a565b91905055505050505050565b5f5481565b606060015f8381526020019081526020015f2060060180548060200260200160405190810160405280929190818152602001828054801561043657602002820191905f5260205f20905b815f9054906101000a900473ffffffffffffffffffffffffffffffffffffffff1673ffffffffffffffffffffffffffffffffffffffff16815260200190600101908083116103ed575b50505050509050919050565b6001602052805f5260405f205f91509050805f015f9054906101000a900473ffffffffffffffffffffffffffffffffffffffff169080600101805461048690611441565b80601f01602080910402602001604051908101604052809291908181526020018280546104b290611441565b80156104fd5780601f106104d4576101008083540402835291602001916104fd565b820191905f5260205f20905b8154815290600101906020018083116104e057829003601f168201915b50505050509080600201805461051290611441565b80601f016020809104026020016040519081016040528092919081815260200182805461053e90611441565b80156105895780601f1061056057610100808354040283529160200191610589565b820191905f5260205f20905b81548152906001019060200180831161056c57829003601f168201915b5050505050908060030154908060040154908060050154905086565b5f3490505f60015f8481526020019081526020015f2090508060060133908060018154018082558091505060019003905f5260205f20015f9091909190916101000a81548173ffffffffffffffffffffffffffffffffffffffff021916908373ffffffffffffffffffffffffffffffffffffffff1602179055508060070182908060018154018082558091505060019003905f5260205f20015f90919091909150555f815f015f9054906101000a900473ffffffffffffffffffffffffffffffffffffffff1673ffffffffffffffffffffffffffffffffffffffff168360405161068e9061177e565b5f6040518083038185875af1925050503d805f81146106c8576040519150601f19603f3d011682016040523d82523d5f602084013e6106cd565b606091505b5050905080156106f0578282600501546106e79190611792565b82600501819055505b50505050565b606060015f8381526020019081526020015f2060070180548060200260200160405190810160405280929190818152602001828054801561075457602002820191905f5260205f20905b815481526020019060010190808311610740575b50505050509050919050565b60605f805467ffffffffffffffff81111561077e5761077d610c5a565b5b6040519080825280602002602001820160405280156107b757816020015b6107a4610b65565b81526020019060019003908161079c5790505b5090505f5b5f54811015610a8b575f60015f8381526020019081526020015f20905080604051806101000160405290815f82015f9054906101000a900473ffffffffffffffffffffffffffffffffffffffff1673ffffffffffffffffffffffffffffffffffffffff1673ffffffffffffffffffffffffffffffffffffffff16815260200160018201805461084a90611441565b80601f016020809104026020016040519081016040528092919081815260200182805461087690611441565b80156108c15780601f10610898576101008083540402835291602001916108c1565b820191905f5260205f20905b8154815290600101906020018083116108a457829003601f168201915b505050505081526020016002820180546108da90611441565b80601f016020809104026020016040519081016040528092919081815260200182805461090690611441565b80156109515780601f1061092857610100808354040283529160200191610951565b820191905f5260205f20905b81548152906001019060200180831161093457829003601f168201915b50505050508152602001600382015481526020016004820154815260200160058201548152602001600682018054806020026020016040519081016040528092919081815260200182805480156109fa57602002820191905f5260205f20905b815f9054906101000a900473ffffffffffffffffffffffffffffffffffffffff1673ffffffffffffffffffffffffffffffffffffffff16815260200190600101908083116109b1575b5050505050815260200160078201805480602002602001604051908101604052809291908181526020018280548015610a5057602002820191905f5260205f20905b815481526020019060010190808311610a3c575b505050505081525050838381518110610a6c57610a6b6117c5565b5b6020026020010181905250508080610a839061170a565b9150506107bc565b508091505090565b828054828255905f5260205f20908101928215610b09579160200282015b82811115610b08578251825f6101000a81548173ffffffffffffffffffffffffffffffffffffffff021916908373ffffffffffffffffffffffffffffffffffffffff16021790555091602001919060010190610ab1565b5b509050610b169190610bbc565b5090565b828054828255905f5260205f20908101928215610b54579160200282015b82811115610b53578251825591602001919060010190610b38565b5b509050610b619190610bbc565b5090565b6040518061010001604052805f73ffffffffffffffffffffffffffffffffffffffff16815260200160608152602001606081526020015f81526020015f81526020015f815260200160608152602001606081525090565b5b80821115610bd3575f815f905550600101610bbd565b5090565b5f604051905090565b5f80fd5b5f80fd5b5f73ffffffffffffffffffffffffffffffffffffffff82169050919050565b5f610c1182610be8565b9050919050565b610c2181610c07565b8114610c2b575f80fd5b50565b5f81359050610c3c81610c18565b92915050565b5f80fd5b5f80fd5b5f601f19601f8301169050919050565b7f4e487b71000000000000000000000000000000000000000000000000000000005f52604160045260245ffd5b610c9082610c4a565b810181811067ffffffffffffffff82111715610caf57610cae610c5a565b5b80604052505050565b5f610cc1610bd7565b9050610ccd8282610c87565b919050565b5f67ffffffffffffffff821115610cec57610ceb610c5a565b5b610cf582610c4a565b9050602081019050919050565b828183375f83830152505050565b5f610d22610d1d84610cd2565b610cb8565b905082815260208101848484011115610d3e57610d3d610c46565b5b610d49848285610d02565b509392505050565b5f82601f830112610d6557610d64610c42565b5b8135610d75848260208601610d10565b91505092915050565b5f819050919050565b610d9081610d7e565b8114610d9a575f80fd5b50565b5f81359050610dab81610d87565b92915050565b5f805f805f60a08688031215610dca57610dc9610be0565b5b5f610dd788828901610c2e565b955050602086013567ffffffffffffffff811115610df857610df7610be4565b5b610e0488828901610d51565b945050604086013567ffffffffffffffff811115610e2557610e24610be4565b5b610e3188828901610d51565b9350506060610e4288828901610d9d565b9250506080610e5388828901610d9d565b9150509295509295909350565b610e6981610d7e565b82525050565b5f602082019050610e825f830184610e60565b92915050565b5f60208284031215610e9d57610e9c610be0565b5b5f610eaa84828501610d9d565b91505092915050565b5f81519050919050565b5f82825260208201905092915050565b5f819050602082019050919050565b610ee581610c07565b82525050565b5f610ef68383610edc565b60208301905092915050565b5f602082019050919050565b5f610f1882610eb3565b610f228185610ebd565b9350610f2d83610ecd565b805f5b83811015610f5d578151610f448882610eeb565b9750610f4f83610f02565b925050600181019050610f30565b5085935050505092915050565b5f6020820190508181035f830152610f828184610f0e565b905092915050565b610f9381610c07565b82525050565b5f81519050919050565b5f82825260208201905092915050565b5f5b83811015610fd0578082015181840152602081019050610fb5565b5f8484015250505050565b5f610fe582610f99565b610fef8185610fa3565b9350610fff818560208601610fb3565b61100881610c4a565b840191505092915050565b5f60c0820190506110265f830189610f8a565b81810360208301526110388188610fdb565b9050818103604083015261104c8187610fdb565b905061105b6060830186610e60565b6110686080830185610e60565b61107560a0830184610e60565b979650505050505050565b5f81519050919050565b5f82825260208201905092915050565b5f819050602082019050919050565b6110b281610d7e565b82525050565b5f6110c383836110a9565b60208301905092915050565b5f602082019050919050565b5f6110e582611080565b6110ef818561108a565b93506110fa8361109a565b805f5b8381101561112a57815161111188826110b8565b975061111c836110cf565b9250506001810190506110fd565b5085935050505092915050565b5f6020820190508181035f83015261114f81846110db565b905092915050565b5f81519050919050565b5f82825260208201905092915050565b5f819050602082019050919050565b5f82825260208201905092915050565b5f61119a82610f99565b6111a48185611180565b93506111b4818560208601610fb3565b6111bd81610c4a565b840191505092915050565b5f82825260208201905092915050565b5f6111e282610eb3565b6111ec81856111c8565b93506111f783610ecd565b805f5b8381101561122757815161120e8882610eeb565b975061121983610f02565b9250506001810190506111fa565b5085935050505092915050565b5f82825260208201905092915050565b5f61124e82611080565b6112588185611234565b93506112638361109a565b805f5b8381101561129357815161127a88826110b8565b9750611285836110cf565b925050600181019050611266565b5085935050505092915050565b5f61010083015f8301516112b65f860182610edc565b50602083015184820360208601526112ce8282611190565b915050604083015184820360408601526112e88282611190565b91505060608301516112fd60608601826110a9565b50608083015161131060808601826110a9565b5060a083015161132360a08601826110a9565b5060c083015184820360c086015261133b82826111d8565b91505060e083015184820360e08601526113558282611244565b9150508091505092915050565b5f61136d83836112a0565b905092915050565b5f602082019050919050565b5f61138b82611157565b6113958185611161565b9350836020820285016113a785611171565b805f5b858110156113e257848403895281516113c38582611362565b94506113ce83611375565b925060208a019950506001810190506113aa565b50829750879550505050505092915050565b5f6020820190508181035f83015261140c8184611381565b905092915050565b7f4e487b71000000000000000000000000000000000000000000000000000000005f52602260045260245ffd5b5f600282049050600182168061145857607f821691505b60208210810361146b5761146a611414565b5b50919050565b5f819050815f5260205f209050919050565b5f6020601f8301049050919050565b5f82821b905092915050565b5f600883026114cd7fffffffffffffffffffffffffffffffffffffffffffffffffffffffffffffffff82611492565b6114d78683611492565b95508019841693508086168417925050509392505050565b5f819050919050565b5f61151261150d61150884610d7e565b6114ef565b610d7e565b9050919050565b5f819050919050565b61152b836114f8565b61153f61153782611519565b84845461149e565b825550505050565b5f90565b611553611547565b61155e818484611522565b505050565b5b81811015611581576115765f8261154b565b600181019050611564565b5050565b601f8211156115c65761159781611471565b6115a084611483565b810160208510156115af578190505b6115c36115bb85611483565b830182611563565b50505b505050565b5f82821c905092915050565b5f6115e65f19846008026115cb565b1980831691505092915050565b5f6115fe83836115d7565b9150826002028217905092915050565b61161782610f99565b67ffffffffffffffff8111156116305761162f610c5a565b5b61163a8254611441565b611645828285611585565b5f60209050601f831160018114611676575f8415611664578287015190505b61166e85826115f3565b8655506116d5565b601f19841661168486611471565b5f5b828110156116ab57848901518255600182019150602085019450602081019050611686565b868310156116c857848901516116c4601f8916826115d7565b8355505b6001600288020188555050505b505050505050565b7f4e487b71000000000000000000000000000000000000000000000000000000005f52601160045260245ffd5b5f61171482610d7e565b91507fffffffffffffffffffffffffffffffffffffffffffffffffffffffffffffffff8203611746576117456116dd565b5b600182019050919050565b5f81905092915050565b50565b5f6117695f83611751565b91506117748261175b565b5f82019050919050565b5f6117888261175e565b9150819050919050565b5f61179c82610d7e565b91506117a783610d7e565b92508282019050808211156117bf576117be6116dd565b5b92915050565b7f4e487b71000000000000000000000000000000000000000000000000000000005f52603260045260245ffdfea2646970667358221220ae903c0fcb9eff4818bb533dc2c93eb1295a1a5b6168ee422a65f12aad4b556764736f6c63430008150033",
  "immutableReferences": {},
  "source": "// SPDX-License-Identifier: MIT\npragma solidity ^0.8.15;\n\ncontract CrowdFunding {\n    struct Campaign {\n        address owner;\n        string title;\n        string description;\n        uint256 target;\n        uint256 deadline;\n        uint256 amountCollected;\n        address[] donators;\n        uint256[] donations;\n    }\n    uint256 public numberOfCampaigns = 0;\n    mapping(uint256 => Campaign) public campaigns;\n\n    function createCampaign(address _owner, string memory _title, string memory _desc, uint256 _target, uint256 _deadline) external {\n        //require(block.timestamp < _deadline, \"Deadline has passed\");\n\n        campaigns[numberOfCampaigns] = Campaign(\n            _owner,\n            _title,\n            _desc,\n            _target,\n            _deadline,\n            0,\n            new address[](0),\n            new uint256[](0)\n        );\n        numberOfCampaigns++;\n    }\n\n    function donateToCampaign(uint256 _id) external payable {\n        uint256 amount = msg.value;\n        Campaign storage campaign = campaigns[_id];\n        campaign.donators.push(msg.sender);\n        campaign.donations.push(amount);\n        (bool sent, ) = payable(campaign.owner).call{value: amount}(\"\");\n        if (sent) {\n            campaign.amountCollected = campaign.amountCollected + amount;\n        }\n    }\n\n    function getDonators(uint256 _id) external view returns (address[] memory) {\n        return campaigns[_id].donators;\n    }\n\n    function getDonations(uint256 _id) external view returns (uint256[] memory){\n        return campaigns[_id].donations;\n    }\n\n    function getAllCampaigns() external view returns (Campaign[] memory) {\n        Campaign[] memory allCampaigns = new Campaign[](numberOfCampaigns);\n\n        for (uint256 i = 0; i < numberOfCampaigns; i++) {\n            Campaign storage campaign = campaigns[i];\n            allCampaigns[i] = campaign;\n        }\n\n        return allCampaigns;\n    }\n}\n",
  "sourcePath": "C:\\Users\\user\\Documents\\CrowdFunding\\backend\\contracts\\CrowdFunding.sol",
  "compiler": {
    "name": "solc",
    "version": "0.8.21+commit.d9974bed.Emscripten.clang"
  },
  "schemaVersion": "3.4.16",
  "updatedAt": "2024-09-01T11:55:20.913Z",
  "devdoc": {
    "kind": "dev",
    "methods": {},
    "version": 1
  },
  "userdoc": {
    "kind": "user",
    "methods": {},
    "version": 1
  }
}